{
  "_format": "hh-sol-artifact-1",
  "contractName": "fundraising",
  "sourceName": "contracts/fundraising.sol",
  "abi": [
    {
      "inputs": [
        {
          "internalType": "uint256",
          "name": "_target",
          "type": "uint256"
        },
        {
          "internalType": "uint256",
          "name": "_lock_time",
          "type": "uint256"
        }
      ],
      "stateMutability": "nonpayable",
      "type": "constructor"
    },
    {
      "anonymous": false,
      "inputs": [
        {
          "indexed": false,
          "internalType": "address",
          "name": "add",
          "type": "address"
        },
        {
          "indexed": false,
          "internalType": "uint256",
          "name": "money",
          "type": "uint256"
        }
      ],
      "name": "fund_event",
      "type": "event"
    },
    {
      "inputs": [
        {
          "internalType": "uint256",
          "name": "_time",
          "type": "uint256"
        }
      ],
      "name": "admin",
      "outputs": [],
      "stateMutability": "nonpayable",
      "type": "function"
    },
    {
      "inputs": [],
      "name": "clear_fundraising_owner",
      "outputs": [],
      "stateMutability": "nonpayable",
      "type": "function"
    },
    {
      "inputs": [],
      "name": "contract_status",
      "outputs": [
        {
          "internalType": "string",
          "name": "",
          "type": "string"
        }
      ],
      "stateMutability": "nonpayable",
      "type": "function"
    },
    {
      "inputs": [],
      "name": "contract_time",
      "outputs": [
        {
          "internalType": "string",
          "name": "",
          "type": "string"
        },
        {
          "internalType": "uint256",
          "name": "",
          "type": "uint256"
        }
      ],
      "stateMutability": "view",
      "type": "function"
    },
    {
      "inputs": [],
      "name": "fund",
      "outputs": [],
      "stateMutability": "payable",
      "type": "function"
    },
    {
      "inputs": [
        {
          "internalType": "address",
          "name": "_inve",
          "type": "address"
        }
      ],
      "name": "get_investor",
      "outputs": [
        {
          "internalType": "uint256",
          "name": "",
          "type": "uint256"
        }
      ],
      "stateMutability": "view",
      "type": "function"
    },
    {
      "inputs": [],
      "name": "is_lock_tiem",
      "outputs": [
        {
          "internalType": "bool",
          "name": "",
          "type": "bool"
        }
      ],
      "stateMutability": "view",
      "type": "function"
    },
    {
      "inputs": [],
      "name": "money_pool",
      "outputs": [
        {
          "internalType": "uint256",
          "name": "",
          "type": "uint256"
        }
      ],
      "stateMutability": "view",
      "type": "function"
    },
    {
      "inputs": [],
      "name": "owner",
      "outputs": [
        {
          "internalType": "address",
          "name": "",
          "type": "address"
        }
      ],
      "stateMutability": "view",
      "type": "function"
    },
    {
      "inputs": [],
      "name": "refund",
      "outputs": [],
      "stateMutability": "nonpayable",
      "type": "function"
    },
    {
      "inputs": [
        {
          "internalType": "uint256",
          "name": "_target",
          "type": "uint256"
        },
        {
          "internalType": "uint256",
          "name": "_lock_time",
          "type": "uint256"
        }
      ],
      "name": "restart",
      "outputs": [],
      "stateMutability": "nonpayable",
      "type": "function"
    },
    {
      "inputs": [],
      "name": "target",
      "outputs": [
        {
          "internalType": "uint256",
          "name": "",
          "type": "uint256"
        }
      ],
      "stateMutability": "view",
      "type": "function"
    },
    {
      "inputs": [],
      "name": "withdraw_money_pool",
      "outputs": [],
      "stateMutability": "payable",
      "type": "function"
    }
  ],
  "bytecode": "0x6080604052670de0b6b3a76400006001556000600560006101000a81548160ff02191690831515021790555034801561003757600080fd5b50604051611ee4380380611ee483398181016040528101906100599190610102565b336000806101000a81548173ffffffffffffffffffffffffffffffffffffffff021916908373ffffffffffffffffffffffffffffffffffffffff1602179055504260068190555081600160008282546100b29190610171565b925050819055508060078190555050506101b3565b600080fd5b6000819050919050565b6100df816100cc565b81146100ea57600080fd5b50565b6000815190506100fc816100d6565b92915050565b60008060408385031215610119576101186100c7565b5b6000610127858286016100ed565b9250506020610138858286016100ed565b9150509250929050565b7f4e487b7100000000000000000000000000000000000000000000000000000000600052601160045260246000fd5b600061017c826100cc565b9150610187836100cc565b9250828202610195816100cc565b915082820484148315176101ac576101ab610142565b5b5092915050565b611d22806101c26000396000f3fe6080604052600436106100c25760003560e01c80638d9e5c6b1161007f578063b60d428811610059578063b60d428814610212578063d4b839921461021c578063d599a1c614610247578063edcb61ea14610270576100c2565b80638d9e5c6b146101c65780638da5cb5b146101dd578063ae28f4f314610208576100c2565b8063249fffef146100c757806325d9f34f146100f25780632b1bf48f1461011e5780635097656914610149578063590e1ae31461018657806381bd2e0e1461019d575b600080fd5b3480156100d357600080fd5b506100dc61029b565b6040516100e99190611127565b60405180910390f35b3480156100fe57600080fd5b506101076102c5565b6040516101159291906111eb565b60405180910390f35b34801561012a57600080fd5b5061013361038c565b604051610140919061121b565b60405180910390f35b34801561015557600080fd5b50610170600480360381019061016b91906112a0565b61049a565b60405161017d91906112cd565b60405180910390f35b34801561019257600080fd5b5061019b6104e3565b005b3480156101a957600080fd5b506101c460048036038101906101bf9190611314565b610661565b005b3480156101d257600080fd5b506101db610877565b005b3480156101e957600080fd5b506101f26109ba565b6040516101ff9190611363565b60405180910390f35b6102106109de565b005b61021a610b87565b005b34801561022857600080fd5b50610231610dc0565b60405161023e91906112cd565b60405180910390f35b34801561025357600080fd5b5061026e6004803603810190610269919061137e565b610dc6565b005b34801561027c57600080fd5b50610285610f8e565b60405161029291906112cd565b60405180910390f35b6000600654600754426102ae91906113da565b10156102bd57600190506102c2565b600090505b90565b606060006102d161029b565b1561033157426007546006546102e7919061140e565b6102f191906113da565b6040518060400160405280601881526020017f5468657265206973207374696c6c2074696d65206c65667400000000000000008152509091509150610388565b600754600654610341919061140e565b4261034c91906113da565b6040518060400160405280601281526020017f4974277320616c7265616479206f7665722e000000000000000000000000000081525090915091505b9091565b6060610396610f94565b61039e61029b565b6103c2576040518060600160405280602c8152602001611cc1602c91399050610497565b6103ca61100f565b1561040c576040518060400160405280601481526020017f66696e69736820686173207461726765742121210000000000000000000000008152509050610497565b600560009054906101000a900460ff161561045e576040518060400160405280601781526020017f66756e6472616973696e6720697320636c6561722121210000000000000000008152509050610497565b6040518060400160405280601a81526020017f54686520636f6e7472616374206973206e6f726d616c2021212100000000000081525090505b90565b6000600360008373ffffffffffffffffffffffffffffffffffffffff1673ffffffffffffffffffffffffffffffffffffffff168152602001908152602001600020549050919050565b600560009054906101000a900460ff16610532576040517f08c379a00000000000000000000000000000000000000000000000000000000081526004016105299061148e565b60405180910390fd5b6000600360003373ffffffffffffffffffffffffffffffffffffffff1673ffffffffffffffffffffffffffffffffffffffff168152602001908152602001600020549050600081116105b9576040517f08c379a00000000000000000000000000000000000000000000000000000000081526004016105b0906114fa565b60405180910390fd5b80600260008282546105cb91906113da565b925050819055506000600360003373ffffffffffffffffffffffffffffffffffffffff1673ffffffffffffffffffffffffffffffffffffffff168152602001908152602001600020819055503373ffffffffffffffffffffffffffffffffffffffff166108fc829081150290604051600060405180830381858888f1935050505015801561065d573d6000803e3d6000fd5b5050565b600560009054906101000a900460ff166106b0576040517f08c379a00000000000000000000000000000000000000000000000000000000081526004016106a790611566565b60405180910390fd5b6000600254146106f5576040517f08c379a00000000000000000000000000000000000000000000000000000000081526004016106ec906115d2565b60405180910390fd5b3373ffffffffffffffffffffffffffffffffffffffff1660008054906101000a900473ffffffffffffffffffffffffffffffffffffffff1673ffffffffffffffffffffffffffffffffffffffff1614610783576040517f08c379a000000000000000000000000000000000000000000000000000000000815260040161077a9061163e565b60405180910390fd5b60005b6004805490508110156108215760036000600483815481106107ab576107aa61165e565b5b9060005260206000200160009054906101000a900473ffffffffffffffffffffffffffffffffffffffff1673ffffffffffffffffffffffffffffffffffffffff1673ffffffffffffffffffffffffffffffffffffffff168152602001908152602001600020600090558080600101915050610786565b506004600061083091906110ce565b6000600560006101000a81548160ff02191690831515021790555042600681905550670de0b6b3a764000082610866919061168d565b600181905550806007819055505050565b3373ffffffffffffffffffffffffffffffffffffffff1660008054906101000a900473ffffffffffffffffffffffffffffffffffffffff1673ffffffffffffffffffffffffffffffffffffffff1614610905576040517f08c379a00000000000000000000000000000000000000000000000000000000081526004016108fc9061171b565b60405180910390fd5b600560009054906101000a900460ff1615610955576040517f08c379a000000000000000000000000000000000000000000000000000000000815260040161094c90611787565b60405180910390fd5b61095d61029b565b1561099d576040517f08c379a000000000000000000000000000000000000000000000000000000000815260040161099490611819565b60405180910390fd5b6001600560006101000a81548160ff021916908315150217905550565b60008054906101000a900473ffffffffffffffffffffffffffffffffffffffff1681565b3373ffffffffffffffffffffffffffffffffffffffff1660008054906101000a900473ffffffffffffffffffffffffffffffffffffffff1673ffffffffffffffffffffffffffffffffffffffff1614610a6c576040517f08c379a0000000000000000000000000000000000000000000000000000000008152600401610a6390611885565b60405180910390fd5b610a7461100f565b610ab3576040517f08c379a0000000000000000000000000000000000000000000000000000000008152600401610aaa906118f1565b60405180910390fd5b60003373ffffffffffffffffffffffffffffffffffffffff1647604051610ad990611942565b60006040518083038185875af1925050503d8060008114610b16576040519150601f19603f3d011682016040523d82523d6000602084013e610b1b565b606091505b50508091505080610b61576040517f08c379a0000000000000000000000000000000000000000000000000000000008152600401610b58906119a3565b60405180910390fd5b60006002819055506001600560006101000a81548160ff02191690831515021790555050565b60065460075442610b9891906113da565b10610bd8576040517f08c379a0000000000000000000000000000000000000000000000000000000008152600401610bcf90611a35565b60405180910390fd5b610be061100f565b15610c20576040517f08c379a0000000000000000000000000000000000000000000000000000000008152600401610c1790611aa1565b60405180910390fd5b600560009054906101000a900460ff1615610c70576040517f08c379a0000000000000000000000000000000000000000000000000000000008152600401610c6790611b0d565b60405180910390fd5b60003411610cb3576040517f08c379a0000000000000000000000000000000000000000000000000000000008152600401610caa90611b9f565b60405180910390fd5b34600360003373ffffffffffffffffffffffffffffffffffffffff1673ffffffffffffffffffffffffffffffffffffffff1681526020019081526020016000206000828254610d02919061140e565b925050819055506004339080600181540180825580915050600190039060005260206000200160009091909190916101000a81548173ffffffffffffffffffffffffffffffffffffffff021916908373ffffffffffffffffffffffffffffffffffffffff1602179055503460026000828254610d7e919061140e565b925050819055507fa45601f52cb213b9518f5b40ab78c1139ff91cf727e7e077e13fb3ffd6e099c93334604051610db6929190611bbf565b60405180910390a1565b60015481565b3373ffffffffffffffffffffffffffffffffffffffff1660008054906101000a900473ffffffffffffffffffffffffffffffffffffffff1673ffffffffffffffffffffffffffffffffffffffff1614610e54576040517f08c379a0000000000000000000000000000000000000000000000000000000008152600401610e4b90611c34565b60405180910390fd5b61012c8114610e6b57610e668161102d565b610f8b565b60003373ffffffffffffffffffffffffffffffffffffffff1647604051610e9190611942565b60006040518083038185875af1925050503d8060008114610ece576040519150601f19603f3d011682016040523d82523d6000602084013e610ed3565b606091505b50508091505080610f26573373ffffffffffffffffffffffffffffffffffffffff166108fc479081150290604051600060405180830381858888f19350505050158015610f24573d6000803e3d6000fd5b505b80610f66576040517f08c379a0000000000000000000000000000000000000000000000000000000008152600401610f5d906119a3565b60405180910390fd5b60006002819055506001600560006101000a81548160ff021916908315150217905550505b50565b60025481565b6006546007546003610fa6919061168d565b42610fb191906113da565b118015610fca5750600560009054906101000a900460ff165b8015610fdb5750610fd961029b565b155b8015610fec5750610fea61100f565b155b1561100d576001600560006101000a81548160ff0219169083151502179055505b565b600060015460025410611025576001905061102a565b600090505b90565b3373ffffffffffffffffffffffffffffffffffffffff1660008054906101000a900473ffffffffffffffffffffffffffffffffffffffff1673ffffffffffffffffffffffffffffffffffffffff16146110bb576040517f08c379a00000000000000000000000000000000000000000000000000000000081526004016110b290611ca0565b60405180910390fd5b806007819055506110ca61029b565b5050565b50805460008255906000526020600020908101906110ec91906110ef565b50565b5b808211156111085760008160009055506001016110f0565b5090565b60008115159050919050565b6111218161110c565b82525050565b600060208201905061113c6000830184611118565b92915050565b600081519050919050565b600082825260208201905092915050565b60005b8381101561117c578082015181840152602081019050611161565b60008484015250505050565b6000601f19601f8301169050919050565b60006111a482611142565b6111ae818561114d565b93506111be81856020860161115e565b6111c781611188565b840191505092915050565b6000819050919050565b6111e5816111d2565b82525050565b600060408201905081810360008301526112058185611199565b905061121460208301846111dc565b9392505050565b600060208201905081810360008301526112358184611199565b905092915050565b600080fd5b600073ffffffffffffffffffffffffffffffffffffffff82169050919050565b600061126d82611242565b9050919050565b61127d81611262565b811461128857600080fd5b50565b60008135905061129a81611274565b92915050565b6000602082840312156112b6576112b561123d565b5b60006112c48482850161128b565b91505092915050565b60006020820190506112e260008301846111dc565b92915050565b6112f1816111d2565b81146112fc57600080fd5b50565b60008135905061130e816112e8565b92915050565b6000806040838503121561132b5761132a61123d565b5b6000611339858286016112ff565b925050602061134a858286016112ff565b9150509250929050565b61135d81611262565b82525050565b60006020820190506113786000830184611354565b92915050565b6000602082840312156113945761139361123d565b5b60006113a2848285016112ff565b91505092915050565b7f4e487b7100000000000000000000000000000000000000000000000000000000600052601160045260246000fd5b60006113e5826111d2565b91506113f0836111d2565b9250828203905081811115611408576114076113ab565b5b92915050565b6000611419826111d2565b9150611424836111d2565b925082820190508082111561143c5761143b6113ab565b5b92915050565b7f43726f776466756e64696e67206973206e6f7420636c65617200000000000000600082015250565b600061147860198361114d565b915061148382611442565b602082019050919050565b600060208201905081810360008301526114a78161146b565b9050919050565b7f4e6f2066756e647320746f20726566756e640000000000000000000000000000600082015250565b60006114e460128361114d565b91506114ef826114ae565b602082019050919050565b60006020820190508181036000830152611513816114d7565b9050919050565b7f636f6e7472616374206e6f20636c656172212121000000000000000000000000600082015250565b600061155060148361114d565b915061155b8261151a565b602082019050919050565b6000602082019050818103600083015261157f81611543565b9050919050565b7f6d6f6e65727920706f6f6c20213d302021212100000000000000000000000000600082015250565b60006115bc60138361114d565b91506115c782611586565b602082019050919050565b600060208201905081810360008301526115eb816115af565b9050919050565b7f796f75206e6f74206f776e657221212100000000000000000000000000000000600082015250565b600061162860108361114d565b9150611633826115f2565b602082019050919050565b600060208201905081810360008301526116578161161b565b9050919050565b7f4e487b7100000000000000000000000000000000000000000000000000000000600052603260045260246000fd5b6000611698826111d2565b91506116a3836111d2565b92508282026116b1816111d2565b915082820484148315176116c8576116c76113ab565b5b5092915050565b7f796f75206e6f7420776f6e657220212121000000000000000000000000000000600082015250565b600061170560118361114d565b9150611710826116cf565b602082019050919050565b60006020820190508181036000830152611734816116f8565b9050919050565b7f43726f776466756e64696e6720616c726561647920636c656172000000000000600082015250565b6000611771601a8361114d565b915061177c8261173b565b602082019050919050565b600060208201905081810360008301526117a081611764565b9050919050565b7f6e6f77206973206e6f74206c6f636b2074696d65202c4974277320616c72656160008201527f6479206f7665722e212121000000000000000000000000000000000000000000602082015250565b6000611803602b8361114d565b915061180e826117a7565b604082019050919050565b60006020820190508181036000830152611832816117f6565b9050919050565b7f796f75206e6f7420776f6e657221212100000000000000000000000000000000600082015250565b600061186f60108361114d565b915061187a82611839565b602082019050919050565b6000602082019050818103600083015261189e81611862565b9050919050565b7f556e66696e697368656420746172676574212121000000000000000000000000600082015250565b60006118db60148361114d565b91506118e6826118a5565b602082019050919050565b6000602082019050818103600083015261190a816118ce565b9050919050565b600081905092915050565b50565b600061192c600083611911565b91506119378261191c565b600082019050919050565b600061194d8261191f565b9150819050919050565b7f7472616e73666572206661696c20212121000000000000000000000000000000600082015250565b600061198d60118361114d565b915061199882611957565b602082019050919050565b600060208201905081810360008301526119bc81611980565b9050919050565b7f6e6f77206973206e6f74206c6f636b2074696d652c4974277320616c7265616460008201527f79206f7665722e20212121000000000000000000000000000000000000000000602082015250565b6000611a1f602b8361114d565b9150611a2a826119c3565b604082019050919050565b60006020820190508181036000830152611a4e81611a12565b9050919050565b7f66696e6973682068617320746172676574212121000000000000000000000000600082015250565b6000611a8b60148361114d565b9150611a9682611a55565b602082019050919050565b60006020820190508181036000830152611aba81611a7e565b9050919050565b7f66756e6472616973696e6720697320636c656172212121000000000000000000600082015250565b6000611af760178361114d565b9150611b0282611ac1565b602082019050919050565b60006020820190508181036000830152611b2681611aea565b9050919050565b7f54686520696e766573746d656e742076616c7565206d7573742062652067726560008201527f61746572207468616e2030202121210000000000000000000000000000000000602082015250565b6000611b89602f8361114d565b9150611b9482611b2d565b604082019050919050565b60006020820190508181036000830152611bb881611b7c565b9050919050565b6000604082019050611bd46000830185611354565b611be160208301846111dc565b9392505050565b7f796f75206e6f2061646d696e6572000000000000000000000000000000000000600082015250565b6000611c1e600e8361114d565b9150611c2982611be8565b602082019050919050565b60006020820190508181036000830152611c4d81611c11565b9050919050565b7f796f75206e6f742073656e646572000000000000000000000000000000000000600082015250565b6000611c8a600e8361114d565b9150611c9582611c54565b602082019050919050565b60006020820190508181036000830152611cb981611c7d565b905091905056fe206e6f77206973206e6f74206c6f636b2074696d652c4974277320616c7265616479206f7665722e20212121a264697066735822122039eae4246f6d56afe646d5d5feddb1c4b9c582c9a6af4e26bc1242189bccdd4b64736f6c634300081a0033",
  "linkReferences": {},
  "deployedLinkReferences": {}
}