{
  "_format": "hh-sol-artifact-1",
  "contractName": "fundraising",
  "sourceName": "contracts/fundraising.sol",
  "abi": [
    {
      "inputs": [
        {
          "internalType": "uint256",
          "name": "_target",
          "type": "uint256"
        },
        {
          "internalType": "uint256",
          "name": "_lock_time",
          "type": "uint256"
        }
      ],
      "stateMutability": "nonpayable",
      "type": "constructor"
    },
    {
      "anonymous": false,
      "inputs": [
        {
          "indexed": false,
          "internalType": "address",
          "name": "add",
          "type": "address"
        },
        {
          "indexed": false,
          "internalType": "uint256",
          "name": "money",
          "type": "uint256"
        }
      ],
      "name": "fund_event",
      "type": "event"
    },
    {
      "inputs": [
        {
          "internalType": "uint256",
          "name": "_time",
          "type": "uint256"
        }
      ],
      "name": "admin",
      "outputs": [],
      "stateMutability": "nonpayable",
      "type": "function"
    },
    {
      "inputs": [],
      "name": "clear_fundraising",
      "outputs": [],
      "stateMutability": "nonpayable",
      "type": "function"
    },
    {
      "inputs": [],
      "name": "fund",
      "outputs": [],
      "stateMutability": "payable",
      "type": "function"
    },
    {
      "inputs": [],
      "name": "fund_state",
      "outputs": [
        {
          "internalType": "bool",
          "name": "",
          "type": "bool"
        }
      ],
      "stateMutability": "view",
      "type": "function"
    },
    {
      "inputs": [
        {
          "internalType": "address",
          "name": "_inve",
          "type": "address"
        }
      ],
      "name": "get_investor",
      "outputs": [
        {
          "internalType": "uint256",
          "name": "",
          "type": "uint256"
        }
      ],
      "stateMutability": "view",
      "type": "function"
    },
    {
      "inputs": [],
      "name": "money_pool",
      "outputs": [
        {
          "internalType": "uint256",
          "name": "",
          "type": "uint256"
        }
      ],
      "stateMutability": "view",
      "type": "function"
    },
    {
      "inputs": [],
      "name": "owner",
      "outputs": [
        {
          "internalType": "address",
          "name": "",
          "type": "address"
        }
      ],
      "stateMutability": "view",
      "type": "function"
    },
    {
      "inputs": [],
      "name": "refund",
      "outputs": [],
      "stateMutability": "nonpayable",
      "type": "function"
    },
    {
      "inputs": [
        {
          "internalType": "uint256",
          "name": "_target",
          "type": "uint256"
        },
        {
          "internalType": "uint256",
          "name": "_lock_time",
          "type": "uint256"
        }
      ],
      "name": "restart",
      "outputs": [],
      "stateMutability": "nonpayable",
      "type": "function"
    },
    {
      "inputs": [],
      "name": "target",
      "outputs": [
        {
          "internalType": "uint256",
          "name": "",
          "type": "uint256"
        }
      ],
      "stateMutability": "view",
      "type": "function"
    },
    {
      "inputs": [],
      "name": "time_state",
      "outputs": [
        {
          "internalType": "bool",
          "name": "",
          "type": "bool"
        }
      ],
      "stateMutability": "view",
      "type": "function"
    },
    {
      "inputs": [],
      "name": "withdraw_money_pool",
      "outputs": [],
      "stateMutability": "payable",
      "type": "function"
    }
  ],
  "bytecode": "0x6080604052670de0b6b3a76400006001556001600460006101000a81548160ff0219169083151502179055506001600460016101000a81548160ff02191690831515021790555034801561005257600080fd5b50604051611b91380380611b918339818101604052810190610074919061011d565b336000806101000a81548173ffffffffffffffffffffffffffffffffffffffff021916908373ffffffffffffffffffffffffffffffffffffffff1602179055504260058190555081600160008282546100cd919061018c565b925050819055508060068190555050506101ce565b600080fd5b6000819050919050565b6100fa816100e7565b811461010557600080fd5b50565b600081519050610117816100f1565b92915050565b60008060408385031215610134576101336100e2565b5b600061014285828601610108565b925050602061015385828601610108565b9150509250929050565b7f4e487b7100000000000000000000000000000000000000000000000000000000600052601160045260246000fd5b6000610197826100e7565b91506101a2836100e7565b92508282026101b0816100e7565b915082820484148315176101c7576101c661015d565b5b5092915050565b6119b4806101dd6000396000f3fe6080604052600436106100a75760003560e01c80638da5cb5b116100645780638da5cb5b14610196578063ae28f4f3146101c1578063b60d4288146101cb578063d4b83992146101d5578063d599a1c614610200578063edcb61ea14610229576100a7565b806310dc8dbe146100ac57806350976569146100c357806357e11a0114610100578063590e1ae31461012b5780636f392e8e1461014257806381bd2e0e1461016d575b600080fd5b3480156100b857600080fd5b506100c1610254565b005b3480156100cf57600080fd5b506100ea60048036038101906100e59190610e7b565b6103de565b6040516100f79190610ec1565b60405180910390f35b34801561010c57600080fd5b50610115610427565b6040516101229190610ef7565b60405180910390f35b34801561013757600080fd5b5061014061043a565b005b34801561014e57600080fd5b506101576105b9565b6040516101649190610ef7565b60405180910390f35b34801561017957600080fd5b50610194600480360381019061018f9190610f3e565b6105cc565b005b3480156101a257600080fd5b506101ab610751565b6040516101b89190610f8d565b60405180910390f35b6101c9610775565b005b6101d361094b565b005b3480156101e157600080fd5b506101ea610b20565b6040516101f79190610ec1565b60405180910390f35b34801561020c57600080fd5b5061022760048036038101906102229190610fa8565b610b26565b005b34801561023557600080fd5b5061023e610cea565b60405161024b9190610ec1565b60405180910390f35b3373ffffffffffffffffffffffffffffffffffffffff1660008054906101000a900473ffffffffffffffffffffffffffffffffffffffff1673ffffffffffffffffffffffffffffffffffffffff16146102e2576040517f08c379a00000000000000000000000000000000000000000000000000000000081526004016102d990611032565b60405180910390fd5b600460019054906101000a900460ff16610331576040517f08c379a00000000000000000000000000000000000000000000000000000000081526004016103289061109e565b60405180910390fd5b610339610cf0565b15610379576040517f08c379a00000000000000000000000000000000000000000000000000000000081526004016103709061110a565b60405180910390fd5b610381610d17565b156103c1576040517f08c379a00000000000000000000000000000000000000000000000000000000081526004016103b890611176565b60405180910390fd5b6000600460016101000a81548160ff021916908315150217905550565b6000600360008373ffffffffffffffffffffffffffffffffffffffff1673ffffffffffffffffffffffffffffffffffffffff168152602001908152602001600020549050919050565b600460019054906101000a900460ff1681565b600460019054906101000a900460ff161561048a576040517f08c379a0000000000000000000000000000000000000000000000000000000008152600401610481906111e2565b60405180910390fd5b6000600360003373ffffffffffffffffffffffffffffffffffffffff1673ffffffffffffffffffffffffffffffffffffffff16815260200190815260200160002054905060008111610511576040517f08c379a00000000000000000000000000000000000000000000000000000000081526004016105089061124e565b60405180910390fd5b8060026000828254610523919061129d565b925050819055506000600360003373ffffffffffffffffffffffffffffffffffffffff1673ffffffffffffffffffffffffffffffffffffffff168152602001908152602001600020819055503373ffffffffffffffffffffffffffffffffffffffff166108fc829081150290604051600060405180830381858888f193505050501580156105b5573d6000803e3d6000fd5b5050565b600460009054906101000a900460ff1681565b600460019054906101000a900460ff161561061c576040517f08c379a00000000000000000000000000000000000000000000000000000000081526004016106139061131d565b60405180910390fd5b600060025414610661576040517f08c379a000000000000000000000000000000000000000000000000000000000815260040161065890611389565b60405180910390fd5b3373ffffffffffffffffffffffffffffffffffffffff1660008054906101000a900473ffffffffffffffffffffffffffffffffffffffff1673ffffffffffffffffffffffffffffffffffffffff16146106ef576040517f08c379a00000000000000000000000000000000000000000000000000000000081526004016106e6906113f5565b60405180910390fd5b6001600460006101000a81548160ff0219169083151502179055506001600460016101000a81548160ff02191690831515021790555042600581905550670de0b6b3a7640000826107409190611415565b600181905550806006819055505050565b60008054906101000a900473ffffffffffffffffffffffffffffffffffffffff1681565b3373ffffffffffffffffffffffffffffffffffffffff1660008054906101000a900473ffffffffffffffffffffffffffffffffffffffff1673ffffffffffffffffffffffffffffffffffffffff1614610803576040517f08c379a00000000000000000000000000000000000000000000000000000000081526004016107fa906114a3565b60405180910390fd5b61080b610d17565b1561084b576040517f08c379a00000000000000000000000000000000000000000000000000000000081526004016108429061150f565b60405180910390fd5b610853610cf0565b610892576040517f08c379a00000000000000000000000000000000000000000000000000000000081526004016108899061157b565b60405180910390fd5b60003373ffffffffffffffffffffffffffffffffffffffff16476040516108b8906115cc565b60006040518083038185875af1925050503d80600081146108f5576040519150601f19603f3d011682016040523d82523d6000602084013e6108fa565b606091505b50508091505080610940576040517f08c379a00000000000000000000000000000000000000000000000000000000081526004016109379061162d565b60405180910390fd5b600060028190555050565b6005546006544261095c919061129d565b1061099c576040517f08c379a0000000000000000000000000000000000000000000000000000000008152600401610993906116bf565b60405180910390fd5b6109a4610cf0565b156109e4576040517f08c379a00000000000000000000000000000000000000000000000000000000081526004016109db9061172b565b60405180910390fd5b600460019054906101000a900460ff16610a33576040517f08c379a0000000000000000000000000000000000000000000000000000000008152600401610a2a90611797565b60405180910390fd5b60003411610a76576040517f08c379a0000000000000000000000000000000000000000000000000000000008152600401610a6d90611829565b60405180910390fd5b34600360003373ffffffffffffffffffffffffffffffffffffffff1673ffffffffffffffffffffffffffffffffffffffff1681526020019081526020016000206000828254610ac59190611849565b925050819055503460026000828254610ade9190611849565b925050819055507fa45601f52cb213b9518f5b40ab78c1139ff91cf727e7e077e13fb3ffd6e099c93334604051610b1692919061187d565b60405180910390a1565b60015481565b3373ffffffffffffffffffffffffffffffffffffffff1660008054906101000a900473ffffffffffffffffffffffffffffffffffffffff1673ffffffffffffffffffffffffffffffffffffffff1614610bb4576040517f08c379a0000000000000000000000000000000000000000000000000000000008152600401610bab906118f2565b60405180910390fd5b61012c810315610bc857610bc781610d77565b5b60003373ffffffffffffffffffffffffffffffffffffffff1647604051610bee906115cc565b60006040518083038185875af1925050503d8060008114610c2b576040519150601f19603f3d011682016040523d82523d6000602084013e610c30565b606091505b50508091505080610c83573373ffffffffffffffffffffffffffffffffffffffff166108fc479081150290604051600060405180830381858888f19350505050158015610c81573d6000803e3d6000fd5b505b80610cc3576040517f08c379a0000000000000000000000000000000000000000000000000000000008152600401610cba9061162d565b60405180910390fd5b60006002819055506000600460016101000a81548160ff0219169083151502179055505050565b60025481565b60006001546002541115610d0f57600060068190555060019050610d14565b600090505b90565b600060055460065442610d2a919061129d565b1015610d54576001600460006101000a81548160ff02191690831515021790555060019050610d74565b6000600460006101000a81548160ff021916908315150217905550600090505b90565b3373ffffffffffffffffffffffffffffffffffffffff1660008054906101000a900473ffffffffffffffffffffffffffffffffffffffff1673ffffffffffffffffffffffffffffffffffffffff1614610e05576040517f08c379a0000000000000000000000000000000000000000000000000000000008152600401610dfc9061195e565b60405180910390fd5b80600681905550610e14610d17565b5050565b600080fd5b600073ffffffffffffffffffffffffffffffffffffffff82169050919050565b6000610e4882610e1d565b9050919050565b610e5881610e3d565b8114610e6357600080fd5b50565b600081359050610e7581610e4f565b92915050565b600060208284031215610e9157610e90610e18565b5b6000610e9f84828501610e66565b91505092915050565b6000819050919050565b610ebb81610ea8565b82525050565b6000602082019050610ed66000830184610eb2565b92915050565b60008115159050919050565b610ef181610edc565b82525050565b6000602082019050610f0c6000830184610ee8565b92915050565b610f1b81610ea8565b8114610f2657600080fd5b50565b600081359050610f3881610f12565b92915050565b60008060408385031215610f5557610f54610e18565b5b6000610f6385828601610f29565b9250506020610f7485828601610f29565b9150509250929050565b610f8781610e3d565b82525050565b6000602082019050610fa26000830184610f7e565b92915050565b600060208284031215610fbe57610fbd610e18565b5b6000610fcc84828501610f29565b91505092915050565b600082825260208201905092915050565b7f796f75206e6f7420776f6e657220212121000000000000000000000000000000600082015250565b600061101c601183610fd5565b915061102782610fe6565b602082019050919050565b6000602082019050818103600083015261104b8161100f565b9050919050565b7f43726f776466756e64696e6720616c726561647920636c656172000000000000600082015250565b6000611088601a83610fd5565b915061109382611052565b602082019050919050565b600060208201905081810360008301526110b78161107b565b9050919050565b7f66696e6973682069732074617267657421212100000000000000000000000000600082015250565b60006110f4601383610fd5565b91506110ff826110be565b602082019050919050565b60006020820190508181036000830152611123816110e7565b9050919050565b7f6e6f77206973206c6f636b2074696d6520212121000000000000000000000000600082015250565b6000611160601483610fd5565b915061116b8261112a565b602082019050919050565b6000602082019050818103600083015261118f81611153565b9050919050565b7f43726f776466756e64696e67206973206e6f7420636c65617200000000000000600082015250565b60006111cc601983610fd5565b91506111d782611196565b602082019050919050565b600060208201905081810360008301526111fb816111bf565b9050919050565b7f4e6f2066756e647320746f20726566756e640000000000000000000000000000600082015250565b6000611238601283610fd5565b915061124382611202565b602082019050919050565b600060208201905081810360008301526112678161122b565b9050919050565b7f4e487b7100000000000000000000000000000000000000000000000000000000600052601160045260246000fd5b60006112a882610ea8565b91506112b383610ea8565b92508282039050818111156112cb576112ca61126e565b5b92915050565b7f636f6e7472616374206e6f20636c656172212121000000000000000000000000600082015250565b6000611307601483610fd5565b9150611312826112d1565b602082019050919050565b60006020820190508181036000830152611336816112fa565b9050919050565b7f6d6f6e65727920706f6f6c20213d302021212100000000000000000000000000600082015250565b6000611373601383610fd5565b915061137e8261133d565b602082019050919050565b600060208201905081810360008301526113a281611366565b9050919050565b7f796f75206e6f74206f776e657221212100000000000000000000000000000000600082015250565b60006113df601083610fd5565b91506113ea826113a9565b602082019050919050565b6000602082019050818103600083015261140e816113d2565b9050919050565b600061142082610ea8565b915061142b83610ea8565b925082820261143981610ea8565b915082820484148315176114505761144f61126e565b5b5092915050565b7f796f75206e6f7420776f6e657221212100000000000000000000000000000000600082015250565b600061148d601083610fd5565b915061149882611457565b602082019050919050565b600060208201905081810360008301526114bc81611480565b9050919050565b7f6e6f77206973206c6f636b2074696d6521212100000000000000000000000000600082015250565b60006114f9601383610fd5565b9150611504826114c3565b602082019050919050565b60006020820190508181036000830152611528816114ec565b9050919050565b7f556e66696e697368656420746172676574212121000000000000000000000000600082015250565b6000611565601483610fd5565b91506115708261152f565b602082019050919050565b6000602082019050818103600083015261159481611558565b9050919050565b600081905092915050565b50565b60006115b660008361159b565b91506115c1826115a6565b600082019050919050565b60006115d7826115a9565b9150819050919050565b7f7472616e73666572206661696c20212121000000000000000000000000000000600082015250565b6000611617601183610fd5565b9150611622826115e1565b602082019050919050565b600060208201905081810360008301526116468161160a565b9050919050565b7f6e6f77206973206e6f74206c6f636b2074696d652c6e6f742066756e6420212160008201527f2100000000000000000000000000000000000000000000000000000000000000602082015250565b60006116a9602183610fd5565b91506116b48261164d565b604082019050919050565b600060208201905081810360008301526116d88161169c565b9050919050565b7f66696e6973682068617320746172676574212121000000000000000000000000600082015250565b6000611715601483610fd5565b9150611720826116df565b602082019050919050565b6000602082019050818103600083015261174481611708565b9050919050565b7f66756e6472616973696e6720697320636c656172212121000000000000000000600082015250565b6000611781601783610fd5565b915061178c8261174b565b602082019050919050565b600060208201905081810360008301526117b081611774565b9050919050565b7f54686520696e766573746d656e742076616c7565206d7573742062652067726560008201527f61746572207468616e2030202121210000000000000000000000000000000000602082015250565b6000611813602f83610fd5565b915061181e826117b7565b604082019050919050565b6000602082019050818103600083015261184281611806565b9050919050565b600061185482610ea8565b915061185f83610ea8565b92508282019050808211156118775761187661126e565b5b92915050565b60006040820190506118926000830185610f7e565b61189f6020830184610eb2565b9392505050565b7f796f75206e6f2061646d696e6572000000000000000000000000000000000000600082015250565b60006118dc600e83610fd5565b91506118e7826118a6565b602082019050919050565b6000602082019050818103600083015261190b816118cf565b9050919050565b7f796f75206e6f742073656e646572000000000000000000000000000000000000600082015250565b6000611948600e83610fd5565b915061195382611912565b602082019050919050565b600060208201905081810360008301526119778161193b565b905091905056fea2646970667358221220896fbdc14da433a0654bd74d356eda88147779eb2af20167a6a029e8e4fb1d9064736f6c634300081a0033",
  "linkReferences": {},
  "deployedLinkReferences": {}
}