{
  "_format": "hh-sol-artifact-1",
  "contractName": "TYX",
  "sourceName": "contracts/NFT_ERC721.sol",
  "abi": [
    {
      "inputs": [
        {
          "internalType": "address",
          "name": "initialOwner",
          "type": "address"
        }
      ],
      "stateMutability": "nonpayable",
      "type": "constructor"
    },
    {
      "inputs": [],
      "name": "ERC721EnumerableForbiddenBatchMint",
      "type": "error"
    },
    {
      "inputs": [
        {
          "internalType": "address",
          "name": "sender",
          "type": "address"
        },
        {
          "internalType": "uint256",
          "name": "tokenId",
          "type": "uint256"
        },
        {
          "internalType": "address",
          "name": "owner",
          "type": "address"
        }
      ],
      "name": "ERC721IncorrectOwner",
      "type": "error"
    },
    {
      "inputs": [
        {
          "internalType": "address",
          "name": "operator",
          "type": "address"
        },
        {
          "internalType": "uint256",
          "name": "tokenId",
          "type": "uint256"
        }
      ],
      "name": "ERC721InsufficientApproval",
      "type": "error"
    },
    {
      "inputs": [
        {
          "internalType": "address",
          "name": "approver",
          "type": "address"
        }
      ],
      "name": "ERC721InvalidApprover",
      "type": "error"
    },
    {
      "inputs": [
        {
          "internalType": "address",
          "name": "operator",
          "type": "address"
        }
      ],
      "name": "ERC721InvalidOperator",
      "type": "error"
    },
    {
      "inputs": [
        {
          "internalType": "address",
          "name": "owner",
          "type": "address"
        }
      ],
      "name": "ERC721InvalidOwner",
      "type": "error"
    },
    {
      "inputs": [
        {
          "internalType": "address",
          "name": "receiver",
          "type": "address"
        }
      ],
      "name": "ERC721InvalidReceiver",
      "type": "error"
    },
    {
      "inputs": [
        {
          "internalType": "address",
          "name": "sender",
          "type": "address"
        }
      ],
      "name": "ERC721InvalidSender",
      "type": "error"
    },
    {
      "inputs": [
        {
          "internalType": "uint256",
          "name": "tokenId",
          "type": "uint256"
        }
      ],
      "name": "ERC721NonexistentToken",
      "type": "error"
    },
    {
      "inputs": [
        {
          "internalType": "address",
          "name": "owner",
          "type": "address"
        },
        {
          "internalType": "uint256",
          "name": "index",
          "type": "uint256"
        }
      ],
      "name": "ERC721OutOfBoundsIndex",
      "type": "error"
    },
    {
      "inputs": [
        {
          "internalType": "address",
          "name": "owner",
          "type": "address"
        }
      ],
      "name": "OwnableInvalidOwner",
      "type": "error"
    },
    {
      "inputs": [
        {
          "internalType": "address",
          "name": "account",
          "type": "address"
        }
      ],
      "name": "OwnableUnauthorizedAccount",
      "type": "error"
    },
    {
      "anonymous": false,
      "inputs": [
        {
          "indexed": true,
          "internalType": "address",
          "name": "owner",
          "type": "address"
        },
        {
          "indexed": true,
          "internalType": "address",
          "name": "approved",
          "type": "address"
        },
        {
          "indexed": true,
          "internalType": "uint256",
          "name": "tokenId",
          "type": "uint256"
        }
      ],
      "name": "Approval",
      "type": "event"
    },
    {
      "anonymous": false,
      "inputs": [
        {
          "indexed": true,
          "internalType": "address",
          "name": "owner",
          "type": "address"
        },
        {
          "indexed": true,
          "internalType": "address",
          "name": "operator",
          "type": "address"
        },
        {
          "indexed": false,
          "internalType": "bool",
          "name": "approved",
          "type": "bool"
        }
      ],
      "name": "ApprovalForAll",
      "type": "event"
    },
    {
      "anonymous": false,
      "inputs": [
        {
          "indexed": false,
          "internalType": "uint256",
          "name": "_fromTokenId",
          "type": "uint256"
        },
        {
          "indexed": false,
          "internalType": "uint256",
          "name": "_toTokenId",
          "type": "uint256"
        }
      ],
      "name": "BatchMetadataUpdate",
      "type": "event"
    },
    {
      "anonymous": false,
      "inputs": [
        {
          "indexed": false,
          "internalType": "uint256",
          "name": "_tokenId",
          "type": "uint256"
        }
      ],
      "name": "MetadataUpdate",
      "type": "event"
    },
    {
      "anonymous": false,
      "inputs": [
        {
          "indexed": true,
          "internalType": "address",
          "name": "previousOwner",
          "type": "address"
        },
        {
          "indexed": true,
          "internalType": "address",
          "name": "newOwner",
          "type": "address"
        }
      ],
      "name": "OwnershipTransferred",
      "type": "event"
    },
    {
      "anonymous": false,
      "inputs": [
        {
          "indexed": true,
          "internalType": "address",
          "name": "from",
          "type": "address"
        },
        {
          "indexed": true,
          "internalType": "address",
          "name": "to",
          "type": "address"
        },
        {
          "indexed": true,
          "internalType": "uint256",
          "name": "tokenId",
          "type": "uint256"
        }
      ],
      "name": "Transfer",
      "type": "event"
    },
    {
      "inputs": [
        {
          "internalType": "address",
          "name": "to",
          "type": "address"
        },
        {
          "internalType": "uint256",
          "name": "tokenId",
          "type": "uint256"
        }
      ],
      "name": "approve",
      "outputs": [],
      "stateMutability": "nonpayable",
      "type": "function"
    },
    {
      "inputs": [
        {
          "internalType": "address",
          "name": "owner",
          "type": "address"
        }
      ],
      "name": "balanceOf",
      "outputs": [
        {
          "internalType": "uint256",
          "name": "",
          "type": "uint256"
        }
      ],
      "stateMutability": "view",
      "type": "function"
    },
    {
      "inputs": [
        {
          "internalType": "uint256",
          "name": "tokenId",
          "type": "uint256"
        }
      ],
      "name": "burn",
      "outputs": [],
      "stateMutability": "nonpayable",
      "type": "function"
    },
    {
      "inputs": [
        {
          "internalType": "uint256",
          "name": "tokenId",
          "type": "uint256"
        }
      ],
      "name": "getApproved",
      "outputs": [
        {
          "internalType": "address",
          "name": "",
          "type": "address"
        }
      ],
      "stateMutability": "view",
      "type": "function"
    },
    {
      "inputs": [
        {
          "internalType": "address",
          "name": "owner",
          "type": "address"
        },
        {
          "internalType": "address",
          "name": "operator",
          "type": "address"
        }
      ],
      "name": "isApprovedForAll",
      "outputs": [
        {
          "internalType": "bool",
          "name": "",
          "type": "bool"
        }
      ],
      "stateMutability": "view",
      "type": "function"
    },
    {
      "inputs": [],
      "name": "name",
      "outputs": [
        {
          "internalType": "string",
          "name": "",
          "type": "string"
        }
      ],
      "stateMutability": "view",
      "type": "function"
    },
    {
      "inputs": [],
      "name": "owner",
      "outputs": [
        {
          "internalType": "address",
          "name": "",
          "type": "address"
        }
      ],
      "stateMutability": "view",
      "type": "function"
    },
    {
      "inputs": [
        {
          "internalType": "uint256",
          "name": "tokenId",
          "type": "uint256"
        }
      ],
      "name": "ownerOf",
      "outputs": [
        {
          "internalType": "address",
          "name": "",
          "type": "address"
        }
      ],
      "stateMutability": "view",
      "type": "function"
    },
    {
      "inputs": [],
      "name": "renounceOwnership",
      "outputs": [],
      "stateMutability": "nonpayable",
      "type": "function"
    },
    {
      "inputs": [
        {
          "internalType": "address",
          "name": "to",
          "type": "address"
        }
      ],
      "name": "safeMint",
      "outputs": [],
      "stateMutability": "nonpayable",
      "type": "function"
    },
    {
      "inputs": [
        {
          "internalType": "address",
          "name": "from",
          "type": "address"
        },
        {
          "internalType": "address",
          "name": "to",
          "type": "address"
        },
        {
          "internalType": "uint256",
          "name": "tokenId",
          "type": "uint256"
        }
      ],
      "name": "safeTransferFrom",
      "outputs": [],
      "stateMutability": "nonpayable",
      "type": "function"
    },
    {
      "inputs": [
        {
          "internalType": "address",
          "name": "from",
          "type": "address"
        },
        {
          "internalType": "address",
          "name": "to",
          "type": "address"
        },
        {
          "internalType": "uint256",
          "name": "tokenId",
          "type": "uint256"
        },
        {
          "internalType": "bytes",
          "name": "data",
          "type": "bytes"
        }
      ],
      "name": "safeTransferFrom",
      "outputs": [],
      "stateMutability": "nonpayable",
      "type": "function"
    },
    {
      "inputs": [
        {
          "internalType": "address",
          "name": "operator",
          "type": "address"
        },
        {
          "internalType": "bool",
          "name": "approved",
          "type": "bool"
        }
      ],
      "name": "setApprovalForAll",
      "outputs": [],
      "stateMutability": "nonpayable",
      "type": "function"
    },
    {
      "inputs": [
        {
          "internalType": "bytes4",
          "name": "interfaceId",
          "type": "bytes4"
        }
      ],
      "name": "supportsInterface",
      "outputs": [
        {
          "internalType": "bool",
          "name": "",
          "type": "bool"
        }
      ],
      "stateMutability": "view",
      "type": "function"
    },
    {
      "inputs": [],
      "name": "symbol",
      "outputs": [
        {
          "internalType": "string",
          "name": "",
          "type": "string"
        }
      ],
      "stateMutability": "view",
      "type": "function"
    },
    {
      "inputs": [
        {
          "internalType": "uint256",
          "name": "index",
          "type": "uint256"
        }
      ],
      "name": "tokenByIndex",
      "outputs": [
        {
          "internalType": "uint256",
          "name": "",
          "type": "uint256"
        }
      ],
      "stateMutability": "view",
      "type": "function"
    },
    {
      "inputs": [
        {
          "internalType": "address",
          "name": "owner",
          "type": "address"
        },
        {
          "internalType": "uint256",
          "name": "index",
          "type": "uint256"
        }
      ],
      "name": "tokenOfOwnerByIndex",
      "outputs": [
        {
          "internalType": "uint256",
          "name": "",
          "type": "uint256"
        }
      ],
      "stateMutability": "view",
      "type": "function"
    },
    {
      "inputs": [
        {
          "internalType": "uint256",
          "name": "tokenId",
          "type": "uint256"
        }
      ],
      "name": "tokenURI",
      "outputs": [
        {
          "internalType": "string",
          "name": "",
          "type": "string"
        }
      ],
      "stateMutability": "view",
      "type": "function"
    },
    {
      "inputs": [],
      "name": "totalSupply",
      "outputs": [
        {
          "internalType": "uint256",
          "name": "",
          "type": "uint256"
        }
      ],
      "stateMutability": "view",
      "type": "function"
    },
    {
      "inputs": [
        {
          "internalType": "address",
          "name": "from",
          "type": "address"
        },
        {
          "internalType": "address",
          "name": "to",
          "type": "address"
        },
        {
          "internalType": "uint256",
          "name": "tokenId",
          "type": "uint256"
        }
      ],
      "name": "transferFrom",
      "outputs": [],
      "stateMutability": "nonpayable",
      "type": "function"
    },
    {
      "inputs": [
        {
          "internalType": "address",
          "name": "newOwner",
          "type": "address"
        }
      ],
      "name": "transferOwnership",
      "outputs": [],
      "stateMutability": "nonpayable",
      "type": "function"
    }
  ],
  "bytecode": "0x608060405234801561001057600080fd5b506040516132a93803806132a983398181016040528101906100329190610272565b806040518060400160405280600381526020017f54595800000000000000000000000000000000000000000000000000000000008152506040518060400160405280600381526020017f545448000000000000000000000000000000000000000000000000000000000081525081600090816100ae91906104ef565b5080600190816100be91906104ef565b505050600073ffffffffffffffffffffffffffffffffffffffff168173ffffffffffffffffffffffffffffffffffffffff16036101335760006040517f1e4fbdf700000000000000000000000000000000000000000000000000000000815260040161012a91906105d0565b60405180910390fd5b6101428161014960201b60201c565b50506105eb565b6000600b60009054906101000a900473ffffffffffffffffffffffffffffffffffffffff16905081600b60006101000a81548173ffffffffffffffffffffffffffffffffffffffff021916908373ffffffffffffffffffffffffffffffffffffffff1602179055508173ffffffffffffffffffffffffffffffffffffffff168173ffffffffffffffffffffffffffffffffffffffff167f8be0079c531659141344cd1fd0a4f28419497f9722a3daafe3b4186f6b6457e060405160405180910390a35050565b600080fd5b600073ffffffffffffffffffffffffffffffffffffffff82169050919050565b600061023f82610214565b9050919050565b61024f81610234565b811461025a57600080fd5b50565b60008151905061026c81610246565b92915050565b6000602082840312156102885761028761020f565b5b60006102968482850161025d565b91505092915050565b600081519050919050565b7f4e487b7100000000000000000000000000000000000000000000000000000000600052604160045260246000fd5b7f4e487b7100000000000000000000000000000000000000000000000000000000600052602260045260246000fd5b6000600282049050600182168061032057607f821691505b602082108103610333576103326102d9565b5b50919050565b60008190508160005260206000209050919050565b60006020601f8301049050919050565b600082821b905092915050565b60006008830261039b7fffffffffffffffffffffffffffffffffffffffffffffffffffffffffffffffff8261035e565b6103a5868361035e565b95508019841693508086168417925050509392505050565b6000819050919050565b6000819050919050565b60006103ec6103e76103e2846103bd565b6103c7565b6103bd565b9050919050565b6000819050919050565b610406836103d1565b61041a610412826103f3565b84845461036b565b825550505050565b600090565b61042f610422565b61043a8184846103fd565b505050565b5b8181101561045e57610453600082610427565b600181019050610440565b5050565b601f8211156104a35761047481610339565b61047d8461034e565b8101602085101561048c578190505b6104a06104988561034e565b83018261043f565b50505b505050565b600082821c905092915050565b60006104c6600019846008026104a8565b1980831691505092915050565b60006104df83836104b5565b9150826002028217905092915050565b6104f88261029f565b67ffffffffffffffff811115610511576105106102aa565b5b61051b8254610308565b610526828285610462565b600060209050601f8311600181146105595760008415610547578287015190505b61055185826104d3565b8655506105b9565b601f19841661056786610339565b60005b8281101561058f5784890151825560018201915060208501945060208101905061056a565b868310156105ac57848901516105a8601f8916826104b5565b8355505b6001600288020188555050505b505050505050565b6105ca81610234565b82525050565b60006020820190506105e560008301846105c1565b92915050565b612caf806105fa6000396000f3fe608060405234801561001057600080fd5b50600436106101375760003560e01c80634f6ccce7116100b857806395d89b411161007c57806395d89b411461034c578063a22cb4651461036a578063b88d4fde14610386578063c87b56dd146103a2578063e985e9c5146103d2578063f2fde38b1461040257610137565b80634f6ccce7146102945780636352211e146102c457806370a08231146102f4578063715018a6146103245780638da5cb5b1461032e57610137565b806323b872dd116100ff57806323b872dd146101f45780632f745c591461021057806340d097c31461024057806342842e0e1461025c57806342966c681461027857610137565b806301ffc9a71461013c57806306fdde031461016c578063081812fc1461018a578063095ea7b3146101ba57806318160ddd146101d6575b600080fd5b6101566004803603810190610151919061213d565b61041e565b6040516101639190612185565b60405180910390f35b610174610430565b6040516101819190612230565b60405180910390f35b6101a4600480360381019061019f9190612288565b6104c2565b6040516101b191906122f6565b60405180910390f35b6101d460048036038101906101cf919061233d565b6104de565b005b6101de6104f4565b6040516101eb919061238c565b60405180910390f35b61020e600480360381019061020991906123a7565b610501565b005b61022a6004803603810190610225919061233d565b610603565b604051610237919061238c565b60405180910390f35b61025a600480360381019061025591906123fa565b6106ac565b005b610276600480360381019061027191906123a7565b6106ff565b005b610292600480360381019061028d9190612288565b61071f565b005b6102ae60048036038101906102a99190612288565b610736565b6040516102bb919061238c565b60405180910390f35b6102de60048036038101906102d99190612288565b6107ac565b6040516102eb91906122f6565b60405180910390f35b61030e600480360381019061030991906123fa565b6107be565b60405161031b919061238c565b60405180910390f35b61032c610878565b005b61033661088c565b60405161034391906122f6565b60405180910390f35b6103546108b6565b6040516103619190612230565b60405180910390f35b610384600480360381019061037f9190612453565b610948565b005b6103a0600480360381019061039b91906125c8565b61095e565b005b6103bc60048036038101906103b79190612288565b610983565b6040516103c99190612230565b60405180910390f35b6103ec60048036038101906103e7919061264b565b610995565b6040516103f99190612185565b60405180910390f35b61041c600480360381019061041791906123fa565b610a29565b005b600061042982610aaf565b9050919050565b60606000805461043f906126ba565b80601f016020809104026020016040519081016040528092919081815260200182805461046b906126ba565b80156104b85780601f1061048d576101008083540402835291602001916104b8565b820191906000526020600020905b81548152906001019060200180831161049b57829003601f168201915b5050505050905090565b60006104cd82610b10565b506104d782610b98565b9050919050565b6104f082826104eb610bd5565b610bdd565b5050565b6000600880549050905090565b600073ffffffffffffffffffffffffffffffffffffffff168273ffffffffffffffffffffffffffffffffffffffff16036105735760006040517f64a0ae9200000000000000000000000000000000000000000000000000000000815260040161056a91906122f6565b60405180910390fd5b60006105878383610582610bd5565b610bef565b90508373ffffffffffffffffffffffffffffffffffffffff168173ffffffffffffffffffffffffffffffffffffffff16146105fd578382826040517f64283d7b0000000000000000000000000000000000000000000000000000000081526004016105f4939291906126eb565b60405180910390fd5b50505050565b600061060e836107be565b82106106535782826040517fa57d13dc00000000000000000000000000000000000000000000000000000000815260040161064a929190612722565b60405180910390fd5b600660008473ffffffffffffffffffffffffffffffffffffffff1673ffffffffffffffffffffffffffffffffffffffff168152602001908152602001600020600083815260200190815260200160002054905092915050565b6106b4610c05565b6000600c60008154809291906106c99061277a565b9190505590506106d98282610c8c565b6106fb81604051806060016040528060358152602001612c4560359139610caa565b5050565b61071a8383836040518060200160405280600081525061095e565b505050565b61073260008261072d610bd5565b610bef565b5050565b60006107406104f4565b8210610786576000826040517fa57d13dc00000000000000000000000000000000000000000000000000000000815260040161077d929190612722565b60405180910390fd5b6008828154811061079a576107996127c2565b5b90600052602060002001549050919050565b60006107b782610b10565b9050919050565b60008073ffffffffffffffffffffffffffffffffffffffff168273ffffffffffffffffffffffffffffffffffffffff16036108315760006040517f89c62b6400000000000000000000000000000000000000000000000000000000815260040161082891906122f6565b60405180910390fd5b600360008373ffffffffffffffffffffffffffffffffffffffff1673ffffffffffffffffffffffffffffffffffffffff168152602001908152602001600020549050919050565b610880610c05565b61088a6000610d06565b565b6000600b60009054906101000a900473ffffffffffffffffffffffffffffffffffffffff16905090565b6060600180546108c5906126ba565b80601f01602080910402602001604051908101604052809291908181526020018280546108f1906126ba565b801561093e5780601f106109135761010080835404028352916020019161093e565b820191906000526020600020905b81548152906001019060200180831161092157829003601f168201915b5050505050905090565b61095a610953610bd5565b8383610dcc565b5050565b610969848484610501565b61097d610974610bd5565b85858585610f3b565b50505050565b606061098e826110ec565b9050919050565b6000600560008473ffffffffffffffffffffffffffffffffffffffff1673ffffffffffffffffffffffffffffffffffffffff16815260200190815260200160002060008373ffffffffffffffffffffffffffffffffffffffff1673ffffffffffffffffffffffffffffffffffffffff16815260200190815260200160002060009054906101000a900460ff16905092915050565b610a31610c05565b600073ffffffffffffffffffffffffffffffffffffffff168173ffffffffffffffffffffffffffffffffffffffff1603610aa35760006040517f1e4fbdf7000000000000000000000000000000000000000000000000000000008152600401610a9a91906122f6565b60405180910390fd5b610aac81610d06565b50565b6000634906490660e01b7bffffffffffffffffffffffffffffffffffffffffffffffffffffffff1916827bffffffffffffffffffffffffffffffffffffffffffffffffffffffff19161480610b095750610b08826111ff565b5b9050919050565b600080610b1c83611279565b9050600073ffffffffffffffffffffffffffffffffffffffff168173ffffffffffffffffffffffffffffffffffffffff1603610b8f57826040517f7e273289000000000000000000000000000000000000000000000000000000008152600401610b86919061238c565b60405180910390fd5b80915050919050565b60006004600083815260200190815260200160002060009054906101000a900473ffffffffffffffffffffffffffffffffffffffff169050919050565b600033905090565b610bea83838360016112b6565b505050565b6000610bfc84848461147b565b90509392505050565b610c0d610bd5565b73ffffffffffffffffffffffffffffffffffffffff16610c2b61088c565b73ffffffffffffffffffffffffffffffffffffffff1614610c8a57610c4e610bd5565b6040517f118cdaa7000000000000000000000000000000000000000000000000000000008152600401610c8191906122f6565b60405180910390fd5b565b610ca6828260405180602001604052806000815250611598565b5050565b80600a60008481526020019081526020016000209081610cca919061299d565b507ff8e1a15aba9398e019f0b49df1a4fde98ee17ae345cb5f6b5e2c27f5033e8ce782604051610cfa919061238c565b60405180910390a15050565b6000600b60009054906101000a900473ffffffffffffffffffffffffffffffffffffffff16905081600b60006101000a81548173ffffffffffffffffffffffffffffffffffffffff021916908373ffffffffffffffffffffffffffffffffffffffff1602179055508173ffffffffffffffffffffffffffffffffffffffff168173ffffffffffffffffffffffffffffffffffffffff167f8be0079c531659141344cd1fd0a4f28419497f9722a3daafe3b4186f6b6457e060405160405180910390a35050565b600073ffffffffffffffffffffffffffffffffffffffff168273ffffffffffffffffffffffffffffffffffffffff1603610e3d57816040517f5b08ba18000000000000000000000000000000000000000000000000000000008152600401610e3491906122f6565b60405180910390fd5b80600560008573ffffffffffffffffffffffffffffffffffffffff1673ffffffffffffffffffffffffffffffffffffffff16815260200190815260200160002060008473ffffffffffffffffffffffffffffffffffffffff1673ffffffffffffffffffffffffffffffffffffffff16815260200190815260200160002060006101000a81548160ff0219169083151502179055508173ffffffffffffffffffffffffffffffffffffffff168373ffffffffffffffffffffffffffffffffffffffff167f17307eab39ab6107e8899845ad3d59bd9653f200f220920489ca2b5937696c3183604051610f2e9190612185565b60405180910390a3505050565b60008373ffffffffffffffffffffffffffffffffffffffff163b11156110e5578273ffffffffffffffffffffffffffffffffffffffff1663150b7a02868685856040518563ffffffff1660e01b8152600401610f9a9493929190612ac4565b6020604051808303816000875af1925050508015610fd657506040513d601f19601f82011682018060405250810190610fd39190612b25565b60015b61105a573d8060008114611006576040519150601f19603f3d011682016040523d82523d6000602084013e61100b565b606091505b50600081510361105257836040517f64a0ae9200000000000000000000000000000000000000000000000000000000815260040161104991906122f6565b60405180910390fd5b805181602001fd5b63150b7a0260e01b7bffffffffffffffffffffffffffffffffffffffffffffffffffffffff1916817bffffffffffffffffffffffffffffffffffffffffffffffffffffffff1916146110e357836040517f64a0ae920000000000000000000000000000000000000000000000000000000081526004016110da91906122f6565b60405180910390fd5b505b5050505050565b60606110f782610b10565b506000600a60008481526020019081526020016000208054611118906126ba565b80601f0160208091040260200160405190810160405280929190818152602001828054611144906126ba565b80156111915780601f1061116657610100808354040283529160200191611191565b820191906000526020600020905b81548152906001019060200180831161117457829003601f168201915b5050505050905060006111a26115bc565b905060008151036111b75781925050506111fa565b6000825111156111ec5780826040516020016111d4929190612b8e565b604051602081830303815290604052925050506111fa565b6111f5846115d3565b925050505b919050565b60007f780e9d63000000000000000000000000000000000000000000000000000000007bffffffffffffffffffffffffffffffffffffffffffffffffffffffff1916827bffffffffffffffffffffffffffffffffffffffffffffffffffffffff1916148061127257506112718261163c565b5b9050919050565b60006002600083815260200190815260200160002060009054906101000a900473ffffffffffffffffffffffffffffffffffffffff169050919050565b80806112ef5750600073ffffffffffffffffffffffffffffffffffffffff168273ffffffffffffffffffffffffffffffffffffffff1614155b156114235760006112ff84610b10565b9050600073ffffffffffffffffffffffffffffffffffffffff168373ffffffffffffffffffffffffffffffffffffffff161415801561136a57508273ffffffffffffffffffffffffffffffffffffffff168173ffffffffffffffffffffffffffffffffffffffff1614155b801561137d575061137b8184610995565b155b156113bf57826040517fa9fbf51f0000000000000000000000000000000000000000000000000000000081526004016113b691906122f6565b60405180910390fd5b811561142157838573ffffffffffffffffffffffffffffffffffffffff168273ffffffffffffffffffffffffffffffffffffffff167f8c5be1e5ebec7d5bd14f71427d1e84f3dd0314c0f7b2291e5b200ac8c7c3b92560405160405180910390a45b505b836004600085815260200190815260200160002060006101000a81548173ffffffffffffffffffffffffffffffffffffffff021916908373ffffffffffffffffffffffffffffffffffffffff16021790555050505050565b60008061148985858561171e565b9050600073ffffffffffffffffffffffffffffffffffffffff168173ffffffffffffffffffffffffffffffffffffffff16036114cd576114c884611938565b61150c565b8473ffffffffffffffffffffffffffffffffffffffff168173ffffffffffffffffffffffffffffffffffffffff161461150b5761150a8185611981565b5b5b600073ffffffffffffffffffffffffffffffffffffffff168573ffffffffffffffffffffffffffffffffffffffff160361154e5761154984611a6c565b61158d565b8473ffffffffffffffffffffffffffffffffffffffff168173ffffffffffffffffffffffffffffffffffffffff161461158c5761158b8585611b3d565b5b5b809150509392505050565b6115a28383611bc8565b6115b76115ad610bd5565b6000858585610f3b565b505050565b606060405180602001604052806000815250905090565b60606115de82610b10565b5060006115e96115bc565b905060008151116116095760405180602001604052806000815250611634565b8061161384611cc1565b604051602001611624929190612b8e565b6040516020818303038152906040525b915050919050565b60007f80ac58cd000000000000000000000000000000000000000000000000000000007bffffffffffffffffffffffffffffffffffffffffffffffffffffffff1916827bffffffffffffffffffffffffffffffffffffffffffffffffffffffff1916148061170757507f5b5e139f000000000000000000000000000000000000000000000000000000007bffffffffffffffffffffffffffffffffffffffffffffffffffffffff1916827bffffffffffffffffffffffffffffffffffffffffffffffffffffffff1916145b80611717575061171682611d8f565b5b9050919050565b60008061172a84611279565b9050600073ffffffffffffffffffffffffffffffffffffffff168373ffffffffffffffffffffffffffffffffffffffff161461176c5761176b818486611df9565b5b600073ffffffffffffffffffffffffffffffffffffffff168173ffffffffffffffffffffffffffffffffffffffff16146117fd576117ae6000856000806112b6565b6001600360008373ffffffffffffffffffffffffffffffffffffffff1673ffffffffffffffffffffffffffffffffffffffff168152602001908152602001600020600082825403925050819055505b600073ffffffffffffffffffffffffffffffffffffffff168573ffffffffffffffffffffffffffffffffffffffff1614611880576001600360008773ffffffffffffffffffffffffffffffffffffffff1673ffffffffffffffffffffffffffffffffffffffff168152602001908152602001600020600082825401925050819055505b846002600086815260200190815260200160002060006101000a81548173ffffffffffffffffffffffffffffffffffffffff021916908373ffffffffffffffffffffffffffffffffffffffff160217905550838573ffffffffffffffffffffffffffffffffffffffff168273ffffffffffffffffffffffffffffffffffffffff167fddf252ad1be2c89b69c2b068fc378daa952ba7f163c4a11628f55a4df523b3ef60405160405180910390a4809150509392505050565b6008805490506009600083815260200190815260200160002081905550600881908060018154018082558091505060019003906000526020600020016000909190919091505550565b600061198c836107be565b90506000600760008481526020019081526020016000205490506000600660008673ffffffffffffffffffffffffffffffffffffffff1673ffffffffffffffffffffffffffffffffffffffff1681526020019081526020016000209050828214611a385760008160008581526020019081526020016000205490508082600085815260200190815260200160002081905550826007600083815260200190815260200160002081905550505b6007600085815260200190815260200160002060009055806000848152602001908152602001600020600090555050505050565b60006001600880549050611a809190612bb2565b9050600060096000848152602001908152602001600020549050600060088381548110611ab057611aaf6127c2565b5b906000526020600020015490508060088381548110611ad257611ad16127c2565b5b906000526020600020018190555081600960008381526020019081526020016000208190555060096000858152602001908152602001600020600090556008805480611b2157611b20612be6565b5b6001900381819060005260206000200160009055905550505050565b60006001611b4a846107be565b611b549190612bb2565b905081600660008573ffffffffffffffffffffffffffffffffffffffff1673ffffffffffffffffffffffffffffffffffffffff168152602001908152602001600020600083815260200190815260200160002081905550806007600084815260200190815260200160002081905550505050565b600073ffffffffffffffffffffffffffffffffffffffff168273ffffffffffffffffffffffffffffffffffffffff1603611c3a5760006040517f64a0ae92000000000000000000000000000000000000000000000000000000008152600401611c3191906122f6565b60405180910390fd5b6000611c4883836000610bef565b9050600073ffffffffffffffffffffffffffffffffffffffff168173ffffffffffffffffffffffffffffffffffffffff1614611cbc5760006040517f73c6ac6e000000000000000000000000000000000000000000000000000000008152600401611cb391906122f6565b60405180910390fd5b505050565b606060006001611cd084611ebd565b01905060008167ffffffffffffffff811115611cef57611cee61249d565b5b6040519080825280601f01601f191660200182016040528015611d215781602001600182028036833780820191505090505b509050600082602001820190505b600115611d84578080600190039150507f3031323334353637383961626364656600000000000000000000000000000000600a86061a8153600a8581611d7857611d77612c15565b5b04945060008503611d2f575b819350505050919050565b60007f01ffc9a7000000000000000000000000000000000000000000000000000000007bffffffffffffffffffffffffffffffffffffffffffffffffffffffff1916827bffffffffffffffffffffffffffffffffffffffffffffffffffffffff1916149050919050565b611e04838383612010565b611eb857600073ffffffffffffffffffffffffffffffffffffffff168373ffffffffffffffffffffffffffffffffffffffff1603611e7957806040517f7e273289000000000000000000000000000000000000000000000000000000008152600401611e70919061238c565b60405180910390fd5b81816040517f177e802f000000000000000000000000000000000000000000000000000000008152600401611eaf929190612722565b60405180910390fd5b505050565b600080600090507a184f03e93ff9f4daa797ed6e38ed64bf6a1f0100000000000000008310611f1b577a184f03e93ff9f4daa797ed6e38ed64bf6a1f0100000000000000008381611f1157611f10612c15565b5b0492506040810190505b6d04ee2d6d415b85acef81000000008310611f58576d04ee2d6d415b85acef81000000008381611f4e57611f4d612c15565b5b0492506020810190505b662386f26fc100008310611f8757662386f26fc100008381611f7d57611f7c612c15565b5b0492506010810190505b6305f5e1008310611fb0576305f5e1008381611fa657611fa5612c15565b5b0492506008810190505b6127108310611fd5576127108381611fcb57611fca612c15565b5b0492506004810190505b60648310611ff85760648381611fee57611fed612c15565b5b0492506002810190505b600a8310612007576001810190505b80915050919050565b60008073ffffffffffffffffffffffffffffffffffffffff168373ffffffffffffffffffffffffffffffffffffffff16141580156120c857508273ffffffffffffffffffffffffffffffffffffffff168473ffffffffffffffffffffffffffffffffffffffff16148061208957506120888484610995565b5b806120c757508273ffffffffffffffffffffffffffffffffffffffff166120af83610b98565b73ffffffffffffffffffffffffffffffffffffffff16145b5b90509392505050565b6000604051905090565b600080fd5b600080fd5b60007fffffffff0000000000000000000000000000000000000000000000000000000082169050919050565b61211a816120e5565b811461212557600080fd5b50565b60008135905061213781612111565b92915050565b600060208284031215612153576121526120db565b5b600061216184828501612128565b91505092915050565b60008115159050919050565b61217f8161216a565b82525050565b600060208201905061219a6000830184612176565b92915050565b600081519050919050565b600082825260208201905092915050565b60005b838110156121da5780820151818401526020810190506121bf565b60008484015250505050565b6000601f19601f8301169050919050565b6000612202826121a0565b61220c81856121ab565b935061221c8185602086016121bc565b612225816121e6565b840191505092915050565b6000602082019050818103600083015261224a81846121f7565b905092915050565b6000819050919050565b61226581612252565b811461227057600080fd5b50565b6000813590506122828161225c565b92915050565b60006020828403121561229e5761229d6120db565b5b60006122ac84828501612273565b91505092915050565b600073ffffffffffffffffffffffffffffffffffffffff82169050919050565b60006122e0826122b5565b9050919050565b6122f0816122d5565b82525050565b600060208201905061230b60008301846122e7565b92915050565b61231a816122d5565b811461232557600080fd5b50565b60008135905061233781612311565b92915050565b60008060408385031215612354576123536120db565b5b600061236285828601612328565b925050602061237385828601612273565b9150509250929050565b61238681612252565b82525050565b60006020820190506123a1600083018461237d565b92915050565b6000806000606084860312156123c0576123bf6120db565b5b60006123ce86828701612328565b93505060206123df86828701612328565b92505060406123f086828701612273565b9150509250925092565b6000602082840312156124105761240f6120db565b5b600061241e84828501612328565b91505092915050565b6124308161216a565b811461243b57600080fd5b50565b60008135905061244d81612427565b92915050565b6000806040838503121561246a576124696120db565b5b600061247885828601612328565b92505060206124898582860161243e565b9150509250929050565b600080fd5b600080fd5b7f4e487b7100000000000000000000000000000000000000000000000000000000600052604160045260246000fd5b6124d5826121e6565b810181811067ffffffffffffffff821117156124f4576124f361249d565b5b80604052505050565b60006125076120d1565b905061251382826124cc565b919050565b600067ffffffffffffffff8211156125335761253261249d565b5b61253c826121e6565b9050602081019050919050565b82818337600083830152505050565b600061256b61256684612518565b6124fd565b90508281526020810184848401111561258757612586612498565b5b612592848285612549565b509392505050565b600082601f8301126125af576125ae612493565b5b81356125bf848260208601612558565b91505092915050565b600080600080608085870312156125e2576125e16120db565b5b60006125f087828801612328565b945050602061260187828801612328565b935050604061261287828801612273565b925050606085013567ffffffffffffffff811115612633576126326120e0565b5b61263f8782880161259a565b91505092959194509250565b60008060408385031215612662576126616120db565b5b600061267085828601612328565b925050602061268185828601612328565b9150509250929050565b7f4e487b7100000000000000000000000000000000000000000000000000000000600052602260045260246000fd5b600060028204905060018216806126d257607f821691505b6020821081036126e5576126e461268b565b5b50919050565b600060608201905061270060008301866122e7565b61270d602083018561237d565b61271a60408301846122e7565b949350505050565b600060408201905061273760008301856122e7565b612744602083018461237d565b9392505050565b7f4e487b7100000000000000000000000000000000000000000000000000000000600052601160045260246000fd5b600061278582612252565b91507fffffffffffffffffffffffffffffffffffffffffffffffffffffffffffffffff82036127b7576127b661274b565b5b600182019050919050565b7f4e487b7100000000000000000000000000000000000000000000000000000000600052603260045260246000fd5b60008190508160005260206000209050919050565b60006020601f8301049050919050565b600082821b905092915050565b6000600883026128537fffffffffffffffffffffffffffffffffffffffffffffffffffffffffffffffff82612816565b61285d8683612816565b95508019841693508086168417925050509392505050565b6000819050919050565b600061289a61289561289084612252565b612875565b612252565b9050919050565b6000819050919050565b6128b48361287f565b6128c86128c0826128a1565b848454612823565b825550505050565b600090565b6128dd6128d0565b6128e88184846128ab565b505050565b5b8181101561290c576129016000826128d5565b6001810190506128ee565b5050565b601f82111561295157612922816127f1565b61292b84612806565b8101602085101561293a578190505b61294e61294685612806565b8301826128ed565b50505b505050565b600082821c905092915050565b600061297460001984600802612956565b1980831691505092915050565b600061298d8383612963565b9150826002028217905092915050565b6129a6826121a0565b67ffffffffffffffff8111156129bf576129be61249d565b5b6129c982546126ba565b6129d4828285612910565b600060209050601f831160018114612a0757600084156129f5578287015190505b6129ff8582612981565b865550612a67565b601f198416612a15866127f1565b60005b82811015612a3d57848901518255600182019150602085019450602081019050612a18565b86831015612a5a5784890151612a56601f891682612963565b8355505b6001600288020188555050505b505050505050565b600081519050919050565b600082825260208201905092915050565b6000612a9682612a6f565b612aa08185612a7a565b9350612ab08185602086016121bc565b612ab9816121e6565b840191505092915050565b6000608082019050612ad960008301876122e7565b612ae660208301866122e7565b612af3604083018561237d565b8181036060830152612b058184612a8b565b905095945050505050565b600081519050612b1f81612111565b92915050565b600060208284031215612b3b57612b3a6120db565b5b6000612b4984828501612b10565b91505092915050565b600081905092915050565b6000612b68826121a0565b612b728185612b52565b9350612b828185602086016121bc565b80840191505092915050565b6000612b9a8285612b5d565b9150612ba68284612b5d565b91508190509392505050565b6000612bbd82612252565b9150612bc883612252565b9250828203905081811115612be057612bdf61274b565b5b92915050565b7f4e487b7100000000000000000000000000000000000000000000000000000000600052603160045260246000fd5b7f4e487b7100000000000000000000000000000000000000000000000000000000600052601260045260246000fdfe697066733a2f2f516d544e4639366854547a7164394b765751676141767a37744872353135526a55786e3744727a526947436d6a4ea264697066735822122092c4ee1218069e2f0f384b1c63625b44b8ce64715fa9dcfefd3177d8e42dd58e64736f6c634300081a0033",
  "linkReferences": {},
  "deployedLinkReferences": {}
}