{
  "_format": "hh-sol-artifact-1",
  "contractName": "PetTradingSystem",
  "sourceName": "contracts/pet.sol",
  "abi": [
    {
      "anonymous": false,
      "inputs": [
        {
          "indexed": true,
          "internalType": "uint256",
          "name": "petId",
          "type": "uint256"
        },
        {
          "indexed": true,
          "internalType": "address",
          "name": "newOwner",
          "type": "address"
        },
        {
          "indexed": false,
          "internalType": "uint256",
          "name": "price",
          "type": "uint256"
        }
      ],
      "name": "PetBought",
      "type": "event"
    },
    {
      "anonymous": false,
      "inputs": [
        {
          "indexed": true,
          "internalType": "uint256",
          "name": "petId",
          "type": "uint256"
        },
        {
          "indexed": false,
          "internalType": "uint256",
          "name": "price",
          "type": "uint256"
        }
      ],
      "name": "PetListedForSale",
      "type": "event"
    },
    {
      "anonymous": false,
      "inputs": [
        {
          "indexed": true,
          "internalType": "uint256",
          "name": "petId",
          "type": "uint256"
        },
        {
          "indexed": false,
          "internalType": "string",
          "name": "name",
          "type": "string"
        },
        {
          "indexed": false,
          "internalType": "string",
          "name": "breed",
          "type": "string"
        },
        {
          "indexed": false,
          "internalType": "uint256",
          "name": "price",
          "type": "uint256"
        },
        {
          "indexed": true,
          "internalType": "address",
          "name": "owner",
          "type": "address"
        }
      ],
      "name": "PetRegistered",
      "type": "event"
    },
    {
      "inputs": [
        {
          "internalType": "uint256",
          "name": "_petId",
          "type": "uint256"
        }
      ],
      "name": "buyPet",
      "outputs": [],
      "stateMutability": "payable",
      "type": "function"
    },
    {
      "inputs": [],
      "name": "getAllPets",
      "outputs": [
        {
          "components": [
            {
              "internalType": "uint256",
              "name": "id",
              "type": "uint256"
            },
            {
              "internalType": "string",
              "name": "name",
              "type": "string"
            },
            {
              "internalType": "string",
              "name": "breed",
              "type": "string"
            },
            {
              "internalType": "uint256",
              "name": "price",
              "type": "uint256"
            },
            {
              "internalType": "address",
              "name": "owner",
              "type": "address"
            },
            {
              "internalType": "bool",
              "name": "forSale",
              "type": "bool"
            }
          ],
          "internalType": "struct PetTradingSystem.Pet[]",
          "name": "",
          "type": "tuple[]"
        }
      ],
      "stateMutability": "view",
      "type": "function"
    },
    {
      "inputs": [
        {
          "internalType": "uint256",
          "name": "_petId",
          "type": "uint256"
        }
      ],
      "name": "getPetDetails",
      "outputs": [
        {
          "components": [
            {
              "internalType": "uint256",
              "name": "id",
              "type": "uint256"
            },
            {
              "internalType": "string",
              "name": "name",
              "type": "string"
            },
            {
              "internalType": "string",
              "name": "breed",
              "type": "string"
            },
            {
              "internalType": "uint256",
              "name": "price",
              "type": "uint256"
            },
            {
              "internalType": "address",
              "name": "owner",
              "type": "address"
            },
            {
              "internalType": "bool",
              "name": "forSale",
              "type": "bool"
            }
          ],
          "internalType": "struct PetTradingSystem.Pet",
          "name": "",
          "type": "tuple"
        }
      ],
      "stateMutability": "view",
      "type": "function"
    },
    {
      "inputs": [
        {
          "internalType": "uint256",
          "name": "_petId",
          "type": "uint256"
        },
        {
          "internalType": "uint256",
          "name": "_price",
          "type": "uint256"
        }
      ],
      "name": "listPetForSale",
      "outputs": [],
      "stateMutability": "nonpayable",
      "type": "function"
    },
    {
      "inputs": [
        {
          "internalType": "uint256",
          "name": "",
          "type": "uint256"
        }
      ],
      "name": "pets",
      "outputs": [
        {
          "internalType": "uint256",
          "name": "id",
          "type": "uint256"
        },
        {
          "internalType": "string",
          "name": "name",
          "type": "string"
        },
        {
          "internalType": "string",
          "name": "breed",
          "type": "string"
        },
        {
          "internalType": "uint256",
          "name": "price",
          "type": "uint256"
        },
        {
          "internalType": "address",
          "name": "owner",
          "type": "address"
        },
        {
          "internalType": "bool",
          "name": "forSale",
          "type": "bool"
        }
      ],
      "stateMutability": "view",
      "type": "function"
    },
    {
      "inputs": [
        {
          "internalType": "string",
          "name": "_name",
          "type": "string"
        },
        {
          "internalType": "string",
          "name": "_breed",
          "type": "string"
        },
        {
          "internalType": "uint256",
          "name": "_price",
          "type": "uint256"
        }
      ],
      "name": "registerPet",
      "outputs": [],
      "stateMutability": "nonpayable",
      "type": "function"
    }
  ],
  "bytecode": "0x6080604052348015600f57600080fd5b506119738061001f6000396000f3fe6080604052600436106100555760003560e01c80635b236d971461005a57806368a7ac5b146100855780639edded11146100ae578063cfb869bf146100ca578063d345be2d1461010c578063d89fd4b414610135575b600080fd5b34801561006657600080fd5b5061006f610172565b60405161007c9190610f67565b60405180910390f35b34801561009157600080fd5b506100ac60048036038101906100a79190610fc9565b61037a565b005b6100c860048036038101906100c39190611009565b61051e565b005b3480156100d657600080fd5b506100f160048036038101906100ec9190611009565b61074e565b604051610103969594939291906110ad565b60405180910390f35b34801561011857600080fd5b50610133600480360381019061012e9190611251565b6108d7565b005b34801561014157600080fd5b5061015c60048036038101906101579190611009565b610a96565b604051610169919061136c565b60405180910390f35b60606000805480602002602001604051908101604052809291908181526020016000905b8282101561037157838290600052602060002090600502016040518060c0016040529081600082015481526020016001820180546101d3906113bd565b80601f01602080910402602001604051908101604052809291908181526020018280546101ff906113bd565b801561024c5780601f106102215761010080835404028352916020019161024c565b820191906000526020600020905b81548152906001019060200180831161022f57829003601f168201915b50505050508152602001600282018054610265906113bd565b80601f0160208091040260200160405190810160405280929190818152602001828054610291906113bd565b80156102de5780601f106102b3576101008083540402835291602001916102de565b820191906000526020600020905b8154815290600101906020018083116102c157829003601f168201915b50505050508152602001600382015481526020016004820160009054906101000a900473ffffffffffffffffffffffffffffffffffffffff1673ffffffffffffffffffffffffffffffffffffffff1673ffffffffffffffffffffffffffffffffffffffff1681526020016004820160149054906101000a900460ff16151515158152505081526020019060010190610196565b50505050905090565b60008054905082106103c1576040517f08c379a00000000000000000000000000000000000000000000000000000000081526004016103b89061143a565b60405180910390fd5b60008083815481106103d6576103d561145a565b5b906000526020600020906005020190508060040160009054906101000a900473ffffffffffffffffffffffffffffffffffffffff1673ffffffffffffffffffffffffffffffffffffffff163373ffffffffffffffffffffffffffffffffffffffff1614610478576040517f08c379a000000000000000000000000000000000000000000000000000000000815260040161046f906114fb565b60405180910390fd5b600082116104bb576040517f08c379a00000000000000000000000000000000000000000000000000000000081526004016104b290611567565b60405180910390fd5b81816003018190555060018160040160146101000a81548160ff021916908315150217905550827fe37dc981278a772b90e5df4c912f3f02d9703d21f05b08d8cb1f68381f84f0c5836040516105119190611587565b60405180910390a2505050565b6000805490508110610565576040517f08c379a000000000000000000000000000000000000000000000000000000000815260040161055c9061143a565b60405180910390fd5b600080828154811061057a5761057961145a565b5b906000526020600020906005020190508060040160149054906101000a900460ff166105db576040517f08c379a00000000000000000000000000000000000000000000000000000000081526004016105d2906115ee565b60405180910390fd5b8060030154341015610622576040517f08c379a00000000000000000000000000000000000000000000000000000000081526004016106199061165a565b60405180910390fd5b60008160040160009054906101000a900473ffffffffffffffffffffffffffffffffffffffff169050338260040160006101000a81548173ffffffffffffffffffffffffffffffffffffffff021916908373ffffffffffffffffffffffffffffffffffffffff16021790555060008260040160146101000a81548160ff0219169083151502179055508073ffffffffffffffffffffffffffffffffffffffff166108fc83600301549081150290604051600060405180830381858888f193505050501580156106f5573d6000803e3d6000fd5b503373ffffffffffffffffffffffffffffffffffffffff16837f1c51be4e4cc617123231d8e319deaf18c65ae48fd60502645cb05dff18b2152c84600301546040516107419190611587565b60405180910390a3505050565b6000818154811061075e57600080fd5b9060005260206000209060050201600091509050806000015490806001018054610787906113bd565b80601f01602080910402602001604051908101604052809291908181526020018280546107b3906113bd565b80156108005780601f106107d557610100808354040283529160200191610800565b820191906000526020600020905b8154815290600101906020018083116107e357829003601f168201915b505050505090806002018054610815906113bd565b80601f0160208091040260200160405190810160405280929190818152602001828054610841906113bd565b801561088e5780601f106108635761010080835404028352916020019161088e565b820191906000526020600020905b81548152906001019060200180831161087157829003601f168201915b5050505050908060030154908060040160009054906101000a900473ffffffffffffffffffffffffffffffffffffffff16908060040160149054906101000a900460ff16905086565b6000811161091a576040517f08c379a000000000000000000000000000000000000000000000000000000000815260040161091190611567565b60405180910390fd5b60008080549050905060006040518060c001604052808381526020018681526020018581526020018481526020013373ffffffffffffffffffffffffffffffffffffffff1681526020016000151581525090806001815401808255809150506001900390600052602060002090600502016000909190919091506000820151816000015560208201518160010190816109b39190611826565b5060408201518160020190816109c99190611826565b506060820151816003015560808201518160040160006101000a81548173ffffffffffffffffffffffffffffffffffffffff021916908373ffffffffffffffffffffffffffffffffffffffff16021790555060a08201518160040160146101000a81548160ff02191690831515021790555050503373ffffffffffffffffffffffffffffffffffffffff16817f96b65fccaef0a07a8123b25d5b76c744b9d73cccad9e6c1a07a6d97666ac8e0b868686604051610a88939291906118f8565b60405180910390a350505050565b610a9e610cc2565b6000805490508210610ae5576040517f08c379a0000000000000000000000000000000000000000000000000000000008152600401610adc9061143a565b60405180910390fd5b60008281548110610af957610af861145a565b5b90600052602060002090600502016040518060c001604052908160008201548152602001600182018054610b2c906113bd565b80601f0160208091040260200160405190810160405280929190818152602001828054610b58906113bd565b8015610ba55780601f10610b7a57610100808354040283529160200191610ba5565b820191906000526020600020905b815481529060010190602001808311610b8857829003601f168201915b50505050508152602001600282018054610bbe906113bd565b80601f0160208091040260200160405190810160405280929190818152602001828054610bea906113bd565b8015610c375780601f10610c0c57610100808354040283529160200191610c37565b820191906000526020600020905b815481529060010190602001808311610c1a57829003601f168201915b50505050508152602001600382015481526020016004820160009054906101000a900473ffffffffffffffffffffffffffffffffffffffff1673ffffffffffffffffffffffffffffffffffffffff1673ffffffffffffffffffffffffffffffffffffffff1681526020016004820160149054906101000a900460ff1615151515815250509050919050565b6040518060c0016040528060008152602001606081526020016060815260200160008152602001600073ffffffffffffffffffffffffffffffffffffffff1681526020016000151581525090565b600081519050919050565b600082825260208201905092915050565b6000819050602082019050919050565b6000819050919050565b610d4f81610d3c565b82525050565b600081519050919050565b600082825260208201905092915050565b60005b83811015610d8f578082015181840152602081019050610d74565b60008484015250505050565b6000601f19601f8301169050919050565b6000610db782610d55565b610dc18185610d60565b9350610dd1818560208601610d71565b610dda81610d9b565b840191505092915050565b600073ffffffffffffffffffffffffffffffffffffffff82169050919050565b6000610e1082610de5565b9050919050565b610e2081610e05565b82525050565b60008115159050919050565b610e3b81610e26565b82525050565b600060c083016000830151610e596000860182610d46565b5060208301518482036020860152610e718282610dac565b91505060408301518482036040860152610e8b8282610dac565b9150506060830151610ea06060860182610d46565b506080830151610eb36080860182610e17565b5060a0830151610ec660a0860182610e32565b508091505092915050565b6000610edd8383610e41565b905092915050565b6000602082019050919050565b6000610efd82610d10565b610f078185610d1b565b935083602082028501610f1985610d2c565b8060005b85811015610f555784840389528151610f368582610ed1565b9450610f4183610ee5565b925060208a01995050600181019050610f1d565b50829750879550505050505092915050565b60006020820190508181036000830152610f818184610ef2565b905092915050565b6000604051905090565b600080fd5b600080fd5b610fa681610d3c565b8114610fb157600080fd5b50565b600081359050610fc381610f9d565b92915050565b60008060408385031215610fe057610fdf610f93565b5b6000610fee85828601610fb4565b9250506020610fff85828601610fb4565b9150509250929050565b60006020828403121561101f5761101e610f93565b5b600061102d84828501610fb4565b91505092915050565b61103f81610d3c565b82525050565b600082825260208201905092915050565b600061106182610d55565b61106b8185611045565b935061107b818560208601610d71565b61108481610d9b565b840191505092915050565b61109881610e05565b82525050565b6110a781610e26565b82525050565b600060c0820190506110c26000830189611036565b81810360208301526110d48188611056565b905081810360408301526110e88187611056565b90506110f76060830186611036565b611104608083018561108f565b61111160a083018461109e565b979650505050505050565b600080fd5b600080fd5b7f4e487b7100000000000000000000000000000000000000000000000000000000600052604160045260246000fd5b61115e82610d9b565b810181811067ffffffffffffffff8211171561117d5761117c611126565b5b80604052505050565b6000611190610f89565b905061119c8282611155565b919050565b600067ffffffffffffffff8211156111bc576111bb611126565b5b6111c582610d9b565b9050602081019050919050565b82818337600083830152505050565b60006111f46111ef846111a1565b611186565b9050828152602081018484840111156112105761120f611121565b5b61121b8482856111d2565b509392505050565b600082601f8301126112385761123761111c565b5b81356112488482602086016111e1565b91505092915050565b60008060006060848603121561126a57611269610f93565b5b600084013567ffffffffffffffff81111561128857611287610f98565b5b61129486828701611223565b935050602084013567ffffffffffffffff8111156112b5576112b4610f98565b5b6112c186828701611223565b92505060406112d286828701610fb4565b9150509250925092565b600060c0830160008301516112f46000860182610d46565b506020830151848203602086015261130c8282610dac565b915050604083015184820360408601526113268282610dac565b915050606083015161133b6060860182610d46565b50608083015161134e6080860182610e17565b5060a083015161136160a0860182610e32565b508091505092915050565b6000602082019050818103600083015261138681846112dc565b905092915050565b7f4e487b7100000000000000000000000000000000000000000000000000000000600052602260045260246000fd5b600060028204905060018216806113d557607f821691505b6020821081036113e8576113e761138e565b5b50919050565b7f496e76616c696420706574204944000000000000000000000000000000000000600082015250565b6000611424600e83611045565b915061142f826113ee565b602082019050919050565b6000602082019050818103600083015261145381611417565b9050919050565b7f4e487b7100000000000000000000000000000000000000000000000000000000600052603260045260246000fd5b7f4f6e6c7920746865206f776e65722063616e206c69737420746865207065742060008201527f666f722073616c65000000000000000000000000000000000000000000000000602082015250565b60006114e5602883611045565b91506114f082611489565b604082019050919050565b60006020820190508181036000830152611514816114d8565b9050919050565b7f5072696365206d7573742062652067726561746572207468616e207a65726f00600082015250565b6000611551601f83611045565b915061155c8261151b565b602082019050919050565b6000602082019050818103600083015261158081611544565b9050919050565b600060208201905061159c6000830184611036565b92915050565b7f5468697320706574206973206e6f7420666f722073616c650000000000000000600082015250565b60006115d8601883611045565b91506115e3826115a2565b602082019050919050565b60006020820190508181036000830152611607816115cb565b9050919050565b7f496e73756666696369656e74207061796d656e74000000000000000000000000600082015250565b6000611644601483611045565b915061164f8261160e565b602082019050919050565b6000602082019050818103600083015261167381611637565b9050919050565b60008190508160005260206000209050919050565b60006020601f8301049050919050565b600082821b905092915050565b6000600883026116dc7fffffffffffffffffffffffffffffffffffffffffffffffffffffffffffffffff8261169f565b6116e6868361169f565b95508019841693508086168417925050509392505050565b6000819050919050565b600061172361171e61171984610d3c565b6116fe565b610d3c565b9050919050565b6000819050919050565b61173d83611708565b6117516117498261172a565b8484546116ac565b825550505050565b600090565b611766611759565b611771818484611734565b505050565b5b818110156117955761178a60008261175e565b600181019050611777565b5050565b601f8211156117da576117ab8161167a565b6117b48461168f565b810160208510156117c3578190505b6117d76117cf8561168f565b830182611776565b50505b505050565b600082821c905092915050565b60006117fd600019846008026117df565b1980831691505092915050565b600061181683836117ec565b9150826002028217905092915050565b61182f82610d55565b67ffffffffffffffff81111561184857611847611126565b5b61185282546113bd565b61185d828285611799565b600060209050601f831160018114611890576000841561187e578287015190505b611888858261180a565b8655506118f0565b601f19841661189e8661167a565b60005b828110156118c6578489015182556001820191506020850194506020810190506118a1565b868310156118e357848901516118df601f8916826117ec565b8355505b6001600288020188555050505b505050505050565b600060608201905081810360008301526119128186611056565b905081810360208301526119268185611056565b90506119356040830184611036565b94935050505056fea2646970667358221220ab0fff43444f09bf0d23af37f0fbf545186f9e476a87affcbcec164273c2231764736f6c634300081a0033",
  "linkReferences": {},
  "deployedLinkReferences": {}
}